:020000040000FA
:100000000C945E000C9486000C9486000C94860080
:100010000C9486000C9486000C9486000C94C80402
:100020000C9486000C9486000C9486000C94860038
:100030000C9486000C9486000C9486000C94860028
:100040000C94A2050C9486000C9470050C944A053F
:100050000C9486000C9486000C9486000C94860008
:100060000C9486000C9486000000000024002700F9
:100070002A0000000008000201000003040700003D
:10008000000000000000010204081020408001026E
:1000900004081020010204081020000000002500C0
:1000A00028002B00040404040404040402020202D5
:1000B00002020303030303030200EC0511241FBE25
:1000C000CFEFD8E0DEBFCDBF11E0A0E0B1E0EEE8B9
:1000D000FFE002C005900D92A035B107D9F722E0EC
:1000E000A0E5B1E001C01D92AF31B207E1F710E029
:1000F000CEE5D0E004C02197FE010E94BF07CD35B8
:10010000D107C9F70E9436060C94C5070C9400006D
:10011000AF92BF92CF92DF92EF92FF920F931F9315
:10012000CF93DF936C017B018B01040F151FEB0153
:100130005E01AE18BF08C017D10759F06991D6010A
:10014000ED91FC910190F081E02DC6010995892B7C
:1001500079F7C501DF91CF911F910F91FF90EF903B
:10016000DF90CF90BF90AF900895FC01538D448DE8
:10017000252F30E0842F90E0821B930B541710F052
:10018000CF96089501970895FC01918D828D98175F
:1001900061F0A28DAE0FBF2FB11D5D968C91928D37
:1001A0009F5F9F73928F90E008958FEF9FEF089568
:1001B000FC01918D828D981731F0828DE80FF11D31
:1001C000858D90E008958FEF9FEF0895FC01918D4C
:1001D000228D892F90E0805C9F4F821B91098F7345
:1001E000992708958AE691E00E94E60021E0892B94
:1001F00009F420E0822F089580E090E0892B29F017
:100200000E94F20081110C9400000895FC01A48D5D
:10021000A80FB92FB11DA35ABF4F2C91848D90E028
:1002200001968F739927848FA689B7892C93A0890B
:10023000B1898C91837080648C93938D848D981395
:1002400006C00288F389E02D80818F7D8083089528
:10025000EF92FF920F931F93CF93DF93EC0181E016
:10026000888F9B8D8C8D98131AC0E889F9898081BD
:1002700085FF15C09FB7F894EE89FF896083E889F0
:10028000F98980818370806480839FBF81E090E0E2
:10029000DF91CF911F910F91FF90EF900895F62E6F
:1002A0000B8D10E00F5F1F4F0F731127E02E8C8D09
:1002B0008E110CC00FB607FCFACFE889F98980814E
:1002C00085FFF5CFCE010E940601F1CFEB8DEC0F3B
:1002D000FD2FF11DE35AFF4FF0829FB7F8940B8F6B
:1002E000EA89FB8980818062CFCFCF93DF93EC01D5
:1002F000888D8823B9F0AA89BB89E889F9898C910E
:1003000085FD03C0808186FD0DC00FB607FCF7CFC9
:100310008C9185FFF2CF808185FFEDCFCE010E94C9
:100320000601E9CFDF91CF91089590E0FC01EE58EE
:10033000FF4F2491FC01EA57FF4F3491FC01EC552B
:10034000FF4FE491EE23C9F0222339F0233001F16D
:10035000A8F4213019F1223029F1F0E0EE0FFF1F4F
:10036000E656FF4FA591B4918FB7F894EC916111C7
:1003700026C030953E233C938FBF08952730A9F0C7
:100380002830C9F0243049F7809180008F7D03C068
:10039000809180008F7780938000DFCF84B58F7746
:1003A00084BDDBCF84B58F7DFBCF8091B0008F778C
:1003B0008093B000D2CF8091B0008F7DF9CF3E2BDB
:1003C000DACFCF93DF9390E0FC01EA57FF4F2491FF
:1003D0008C559F4FFC0184918823D1F090E0880FC9
:1003E000991FFC01E859FF4FA591B491FC01E65615
:1003F000FF4FC591D49161110EC09FB7F8948C91B5
:10040000E22FE0958E238C932881E223E8839FBF1F
:10041000DF91CF9108958FB7F894EC91E22BEC9394
:100420008FBFF6CFCF9390910001891721F09F3FA6
:1004300059F1CF910895E8EBF0E0C491C7FDF9CFF1
:1004400061E00E94E101CC2309F496C0C23009F0BA
:10045000ABC08091B100887F83608093B10089EF49
:100460008093B30080E991E0A0E0B0E080935E016A
:1004700090935F01A0936001B0936101809170003F
:10048000826080937000D5CF80930001E8EBF0E0AC
:10049000C491CF3F71F2C13039F148F0C23009F454
:1004A00045C0C7FDC6CF61E00E94E101CFCF14BCBB
:1004B00015BC94B5926094BD95B5916095BD282FFB
:1004C00030E0F901EC55FF4FE491F0E0EE0FFF1F33
:1004D000E656FF4F45915491F901EA57FF4FE491D9
:1004E000E0935D01C0E0ACCF1092800010928100DB
:1004F000909181009860909381009091810091602B
:1005000090938100282F30E0F901EC55FF4FE491E2
:10051000F0E0EE0FFF1FE656FF4F45915491F901B1
:10052000EA57FF4FE491E0935C018ACF1092B0004C
:100530001092B1009091B00092609093B0009091B1
:10054000B10091609093B100282F30E0F901EC5593
:10055000FF4FE491F0E0EE0FFF1FE656FF4F45918D
:10056000549150935B0140935A01F901EA57FF4FB0
:10057000E491E093590164CF85B5887F836085BDA0
:100580008CE787BD80E991E0A0E0B0E08093660150
:1005900090936701A0936801B093690180916E0008
:1005A000826080936E0045CFC130F1F4809181006C
:1005B000887F8160809381008FE39FE19093890021
:1005C0008093880080E991E0A0E0B0E08093620130
:1005D00090936301A0936401B093650180916F00D3
:1005E000826080936F0025CFC23021F0C11121CFEE
:1005F0008FE3C7CF8FE334CF3FB7F8948091550195
:1006000090915601A0915701B091580126B5A89B31
:1006100005C02F3F19F00196A11DB11D3FBFBA2F94
:10062000A92F982F8827BC01CD01620F711D811D54
:10063000911D42E0660F771F881F991F4A95D1F7D9
:100640000895089590E080E00895CF93DF93EC0142
:1006500060E08E810E94950161E08E810E9495018B
:1006600060E08E810E9495018BE891E00197F1F79F
:10067000DF91CF910895CF92DF92EF92FF920F9387
:100680001F93CF93DF936C017C0187E0E80EF11C90
:10069000D0E0C0E0062F10E0B8010C2E02C0759526
:1006A00067950A94E2F76170F70181917F010E94DA
:1006B00095012196C430D10579F7C601DF91CF911C
:1006C0001F910F91FF90EF90DF90CF900C94250336
:1006D000CF92DF92EF92FF920F931F93CF93DF930E
:1006E000EC01F62E642F8C810E9495018D818F3F45
:1006F00019F060E00E9495010F2D10E08F8584FFB6
:1007000025C06E0187E0C80ED11CF12CE12CB80188
:100710000E2C02C0759567950A94E2F76170F60198
:1007200081916F010E949501FFEFEF1AFF0A88E0A7
:10073000E816F10461F7CE01DF91CF911F910F917F
:10074000FF90EF90DF90CF900C942503B80184E0E8
:10075000759567958A95E1F7CE010E943B036F2D51
:10076000CE01DF91CF911F910F91FF90EF90DF901D
:10077000CF900C943B0340E0682F87E092E00C940C
:100780006803CF93DF93823029F49091160298602A
:100790009093160280931A0210921B0280E48093B9
:1007A0001C0280E180931D0280E580931E0261E0BF
:1007B00080910B020E94E10180910C028F3F19F0A1
:1007C00061E00E94E10161E080910D020E94E1017F
:1007D000C7E0D2E09E01275032408091160284FD8E
:1007E0000BC084E090E021962817390744F461E0BB
:1007F0008E810E94E101EECF88E090E0F4CF8BE3A0
:100800009DE00197F1F760E080910B020E94950155
:1008100060E080910D020E94950180910C028F3F53
:1008200019F060E00E9495018091160284FD39C0A4
:1008300063E087E092E00E943B03CBE4D6E4CE0184
:100840000197F1F763E087E092E00E943B03219774
:10085000F1F763E087E092E00E943B0383E592E0DA
:100860000197F1F762E087E092E00E943B038091FC
:10087000160280620E94BB0384E0809317028CE022
:100880000E94BB0381E00E94BB038BE39FE10197C1
:10089000F1F782E08093180286E0DF91CF910C940B
:1008A000BB0380620E94BB038BE496E40197F1F7DF
:1008B0008091160280620E94BB0383E592E001975B
:1008C000F1F78091160280620E94BB03D0CF41E015
:1008D0000E94680381E090E00895FB0101900020F0
:1008E000E9F73197AF01461B570BDC01ED91FC9105
:1008F0000280F381E02D09948F929F92AF92BF9274
:10090000EF92FF920F931F93CF93DF93CDB7DEB794
:10091000A1970FB6F894DEBF0FBECDBF7C01FA01E0
:10092000CB0119A2223008F42AE08E010F5D1F4F7F
:10093000822E912CB12CA12CBF01A50194010E9403
:100940009D07F901CA016A300CF5605DD8016E930C
:100950008D01232B242B252B79F790E080E0109735
:1009600021F0BD01C7010E946D04A1960FB6F89455
:10097000DEBF0FBECDBFDF91CF911F910F91FF90D2
:10098000EF90BF90AF909F908F900895695CDECFFD
:100990001F920F920FB60F9211242F933F934F93F4
:1009A0005F936F937F938F939F93AF93BF93EF93D7
:1009B000FF9380915E0190915F01A0916001B091E1
:1009C0006101892B8A2B8B2BD1F190915901E091F8
:1009D0005A01F0915B0180818927808380915E01BB
:1009E00090915F01A0916001B09161011816190604
:1009F0001A061B069CF480915E0190915F01A09104
:100A00006001B09161010197A109B10980935E0174
:100A100090935F01A0936001B0936101FF91EF910A
:100A2000BF91AF919F918F917F916F915F914F9106
:100A30003F912F910F900FBE0F901F9018958091AE
:100A40000001E8EBF0E0E4919FEF90930001E130CA
:100A500051F030F0E23069F060E00E949501DECFA5
:100A600010926E00F9CF90916F009D7F90936F0070
:100A7000F3CF909170009D7F9093700091E09093E0
:100A8000B0009091B100987F94609093B100109263
:100A9000B300E2CF1F920F920FB60F9211242F9343
:100AA0003F934F935F936F937F938F939F93AF93F6
:100AB000BF93EF93FF938AE691E00E940601FF91B6
:100AC000EF91BF91AF919F918F917F916F915F91C6
:100AD0004F913F912F910F900FBE0F901F9018953F
:100AE0001F920F920FB60F9211242F938F939F9303
:100AF000EF93FF93E0917A01F0917B018081E09187
:100B00008001F091810182FD1BC090818091830161
:100B10008F5F8F7320918401821741F0E0918301F0
:100B2000F0E0E659FE4F958F80938301FF91EF919E
:100B30009F918F912F910F900FBE0F901F9018953E
:100B40008081F4CF1F920F920FB60F9211242F9332
:100B50003F938F939F93AF93BF9380915101909157
:100B60005201A0915301B09154013091500123E002
:100B7000230F2D3758F50196A11DB11D209350016B
:100B80008093510190935201A0935301B09354016B
:100B90008091550190915601A0915701B091580153
:100BA0000196A11DB11D8093550190935601A0930C
:100BB0005701B0935801BF91AF919F918F913F9191
:100BC0002F910F900FBE0F901F90189526E8230FBE
:100BD0000296A11DB11DD2CFEAE6F1E01382128286
:100BE00088EE93E0A0E0B0E084839583A683B7838A
:100BF00085E091E09183808385EC90E09587848700
:100C000084EC90E09787868780EC90E0918B808BD6
:100C100081EC90E0938B828B82EC90E0958B848BBF
:100C200086EC90E0978B868B118E128E138E148E2D
:100C3000E7E0F2E01382128287E191E09183808302
:100C40008CE084838FEF85838BE0868385E08783C8
:100C500084E0808783E0818782E082871386148620
:100C600015861686178681E00C94C103789484B5A6
:100C7000826084BD84B5816084BD85B5826085BD98
:100C800085B5816085BD80916E00816080936E0026
:100C90001092810080918100826080938100809118
:100CA00081008160809381008091800081608093C9
:100CB00080008091B10084608093B1008091B00089
:100CC00081608093B00080917A00846080937A0084
:100CD00080917A00826080937A0080917A008160AE
:100CE00080937A0080917A00806880937A001092D5
:100CF000C10061E088E00E94E10161E089E00E94BA
:100D0000E10160E08EE00E94E101E0917A01F09162
:100D10007B0182E08083E0917601F091770110827F
:100D2000E0917801F09179018FEC8083109282013B
:100D3000E0917E01F0917F0186E08083E0917C016B
:100D4000F0917D01808180618083E0917C01F09150
:100D50007D01808188608083E0917C01F0917D013C
:100D6000808180688083E0917C01F0917D018081A9
:100D70008F7D808381E00E94BB038BE39FE101971D
:100D8000F1F782E00E94C10310E4C0E0D0E01093CC
:100D90007C0080917A00806480937A0080917A0050
:100DA00086FDFCCF80917800E0907900FE2CE82E43
:100DB0006FE171E08AE691E00E946D0447010F2C1B
:100DC000000CAA08BB082AE0B501A401F7FE0DC07B
:100DD0006DE28AE691E00E94280144275527BA0176
:100DE000481959096A097B092AE08AE691E00E94BC
:100DF0007C046DE271E08AE691E00E946D04E1E01E
:100E000080911A028111E0E0E195F0E0E95FFD4F89
:100E1000848980680E94BB036FE171E087E092E003
:100E20000E946D04F7FE61C041E06DE287E092E050
:100E30000E94680344275527BA01481959096A09CD
:100E40007B092AE087E092E00E947C0460E089E070
:100E50000E94950160E088E00E949501E0911A02ED
:100E6000E23008F066C0E150F0E0E95FFD4F8489B0
:100E70008F5F80680E94BB0360E371E087E092E0CF
:100E80000E946D0489E00E9412020E94FC026B0124
:100E90007C0180E9882E99249394A12CB12C0E9486
:100EA000FC026C197D098E099F09683E734081051B
:100EB0009105A8F381E0881A9108A108B10828EEED
:100EC000C20E23E0D21EE11CF11C81149104A10486
:100ED000B10429F7209709F45ACF0E94F200882321
:100EE00009F455CF0E94000052CF2AE0B501A401B9
:100EF00087E092E00E947C0422E3E216F1040CF405
:100F0000A5CF60E089E00E94950160E088E00E9442
:100F10009501E0911A02E23070F4E150F0E0E95FEF
:100F2000FD4F84898F5F80680E94BB036EE371E090
:100F3000A5CFE1E099CFE1E0F1CFA1E21A2EAA1B03
:100F4000BB1BFD010DC0AA1FBB1FEE1FFF1FA21779
:100F5000B307E407F50720F0A21BB30BE40BF50B76
:100F6000661F771F881F991F1A9469F760957095FF
:100F7000809590959B01AC01BD01CF010895EE0FC6
:100F8000FF1F0590F491E02D0994F894FFCFFF0026
:100F900000000028018800B5007501E600C400D8F3
:100FA00000000000006704880022032103416972E9
:100FB0005F5175616C6974793A20000D0A004151E6
:100FC0005F4C6576656C20484947480041515F4C4D
:0E0FD0006576656C204D4F44455241544500F6
:107E0000112484B714BE81FFF0D085E080938100F7
:107E100082E08093C00088E18093C10086E0809377
:107E2000C20080E18093C4008EE0C9D0259A86E02C
:107E300020E33CEF91E0309385002093840096BBD3
:107E4000B09BFECF1D9AA8958150A9F7CC24DD24C4
:107E500088248394B5E0AB2EA1E19A2EF3E0BF2EE7
:107E6000A2D0813461F49FD0082FAFD0023811F036
:107E7000013811F484E001C083E08DD089C08234E0
:107E800011F484E103C0853419F485E0A6D080C0E4
:107E9000853579F488D0E82EFF2485D0082F10E0AE
:107EA000102F00270E291F29000F111F8ED06801E7
:107EB0006FC0863521F484E090D080E0DECF843638
:107EC00009F040C070D06FD0082F6DD080E0C81688
:107ED00080E7D80618F4F601B7BEE895C0E0D1E017
:107EE00062D089930C17E1F7F0E0CF16F0E7DF06D8
:107EF00018F0F601B7BEE89568D007B600FCFDCFD4
:107F0000A601A0E0B1E02C9130E011968C91119780
:107F100090E0982F8827822B932B1296FA010C0160
:107F200087BEE89511244E5F5F4FF1E0A038BF0790
:107F300051F7F601A7BEE89507B600FCFDCF97BE46
:107F4000E89526C08437B1F42ED02DD0F82E2BD052
:107F50003CD0F601EF2C8F010F5F1F4F84911BD097
:107F6000EA94F801C1F70894C11CD11CFA94CF0C13
:107F7000D11C0EC0853739F428D08EE10CD085E9AC
:107F80000AD08FE07ACF813511F488E018D01DD067
:107F900080E101D065CF982F8091C00085FFFCCF94
:107FA0009093C60008958091C00087FFFCCF809118
:107FB000C00084FD01C0A8958091C6000895E0E648
:107FC000F0E098E1908380830895EDDF803219F02E
:107FD00088E0F5DFFFCF84E1DECF1F93182FE3DFCA
:107FE0001150E9F7F2DF1F91089580E0E8DFEE27F6
:047FF000FF270994CA
:027FFE00040479
:00000001FF
